{
  "address": "0xa7a59f3f45B6D042C9d31C00E424E96B636E57Cd",
  "abi": [
    {
      "inputs": [],
      "name": "BidClosed",
      "type": "error"
    },
    {
      "inputs": [],
      "name": "BidTooHigh",
      "type": "error"
    },
    {
      "inputs": [],
      "name": "EmptyEndpoint",
      "type": "error"
    },
    {
      "inputs": [],
      "name": "EmptyPrompt",
      "type": "error"
    },
    {
      "inputs": [],
      "name": "EmptyResult",
      "type": "error"
    },
    {
      "inputs": [],
      "name": "InvalidBid",
      "type": "error"
    },
    {
      "inputs": [],
      "name": "InvalidBidWindow",
      "type": "error"
    },
    {
      "inputs": [],
      "name": "NoBids",
      "type": "error"
    },
    {
      "inputs": [],
      "name": "NoEscrow",
      "type": "error"
    },
    {
      "inputs": [],
      "name": "NotAssigned",
      "type": "error"
    },
    {
      "inputs": [],
      "name": "NotConsumer",
      "type": "error"
    },
    {
      "inputs": [],
      "name": "NotCreator",
      "type": "error"
    },
    {
      "inputs": [],
      "name": "NotDelivered",
      "type": "error"
    },
    {
      "inputs": [],
      "name": "NotOpen",
      "type": "error"
    },
    {
      "inputs": [],
      "name": "ReentrancyGuardReentrantCall",
      "type": "error"
    },
    {
      "inputs": [],
      "name": "ReviewStillOpen",
      "type": "error"
    },
    {
      "inputs": [],
      "name": "TransferFailed",
      "type": "error"
    },
    {
      "anonymous": false,
      "inputs": [
        {
          "indexed": true,
          "internalType": "uint256",
          "name": "commissionId",
          "type": "uint256"
        },
        {
          "indexed": true,
          "internalType": "uint256",
          "name": "bidId",
          "type": "uint256"
        },
        {
          "indexed": true,
          "internalType": "address",
          "name": "creator",
          "type": "address"
        },
        {
          "indexed": false,
          "internalType": "uint256",
          "name": "amount",
          "type": "uint256"
        }
      ],
      "name": "BidAccepted",
      "type": "event"
    },
    {
      "anonymous": false,
      "inputs": [
        {
          "indexed": true,
          "internalType": "uint256",
          "name": "commissionId",
          "type": "uint256"
        },
        {
          "indexed": true,
          "internalType": "uint256",
          "name": "bidId",
          "type": "uint256"
        },
        {
          "indexed": true,
          "internalType": "address",
          "name": "creator",
          "type": "address"
        },
        {
          "indexed": false,
          "internalType": "uint256",
          "name": "amount",
          "type": "uint256"
        },
        {
          "indexed": false,
          "internalType": "string",
          "name": "endpointURI",
          "type": "string"
        }
      ],
      "name": "BidPlaced",
      "type": "event"
    },
    {
      "anonymous": false,
      "inputs": [
        {
          "indexed": true,
          "internalType": "uint256",
          "name": "commissionId",
          "type": "uint256"
        },
        {
          "indexed": false,
          "internalType": "uint256",
          "name": "refund",
          "type": "uint256"
        }
      ],
      "name": "CommissionCancelled",
      "type": "event"
    },
    {
      "anonymous": false,
      "inputs": [
        {
          "indexed": true,
          "internalType": "uint256",
          "name": "commissionId",
          "type": "uint256"
        },
        {
          "indexed": true,
          "internalType": "address",
          "name": "consumer",
          "type": "address"
        },
        {
          "indexed": false,
          "internalType": "uint256",
          "name": "maxBudget",
          "type": "uint256"
        },
        {
          "indexed": false,
          "internalType": "uint256",
          "name": "bidDeadline",
          "type": "uint256"
        },
        {
          "indexed": false,
          "internalType": "string",
          "name": "promptURI",
          "type": "string"
        }
      ],
      "name": "CommissionCreated",
      "type": "event"
    },
    {
      "anonymous": false,
      "inputs": [
        {
          "indexed": true,
          "internalType": "uint256",
          "name": "commissionId",
          "type": "uint256"
        },
        {
          "indexed": true,
          "internalType": "address",
          "name": "creator",
          "type": "address"
        },
        {
          "indexed": false,
          "internalType": "uint256",
          "name": "amount",
          "type": "uint256"
        },
        {
          "indexed": false,
          "internalType": "uint256",
          "name": "refund",
          "type": "uint256"
        }
      ],
      "name": "CommissionPaid",
      "type": "event"
    },
    {
      "anonymous": false,
      "inputs": [
        {
          "indexed": true,
          "internalType": "uint256",
          "name": "commissionId",
          "type": "uint256"
        },
        {
          "indexed": true,
          "internalType": "address",
          "name": "creator",
          "type": "address"
        },
        {
          "indexed": false,
          "internalType": "string",
          "name": "resultURI",
          "type": "string"
        },
        {
          "indexed": false,
          "internalType": "uint256",
          "name": "reviewDeadline",
          "type": "uint256"
        }
      ],
      "name": "DeliverySubmitted",
      "type": "event"
    },
    {
      "inputs": [],
      "name": "DEFAULT_REVIEW_WINDOW",
      "outputs": [
        {
          "internalType": "uint256",
          "name": "",
          "type": "uint256"
        }
      ],
      "stateMutability": "view",
      "type": "function"
    },
    {
      "inputs": [],
      "name": "MIN_BID_WINDOW",
      "outputs": [
        {
          "internalType": "uint256",
          "name": "",
          "type": "uint256"
        }
      ],
      "stateMutability": "view",
      "type": "function"
    },
    {
      "inputs": [
        {
          "internalType": "uint256",
          "name": "commissionId",
          "type": "uint256"
        },
        {
          "internalType": "uint256",
          "name": "bidId",
          "type": "uint256"
        }
      ],
      "name": "acceptBid",
      "outputs": [],
      "stateMutability": "nonpayable",
      "type": "function"
    },
    {
      "inputs": [
        {
          "internalType": "uint256",
          "name": "commissionId",
          "type": "uint256"
        }
      ],
      "name": "approveDelivery",
      "outputs": [],
      "stateMutability": "nonpayable",
      "type": "function"
    },
    {
      "inputs": [
        {
          "internalType": "uint256",
          "name": "commissionId",
          "type": "uint256"
        }
      ],
      "name": "cancelOpenCommission",
      "outputs": [],
      "stateMutability": "nonpayable",
      "type": "function"
    },
    {
      "inputs": [
        {
          "internalType": "uint256",
          "name": "commissionId",
          "type": "uint256"
        }
      ],
      "name": "claimAfterReview",
      "outputs": [],
      "stateMutability": "nonpayable",
      "type": "function"
    },
    {
      "inputs": [
        {
          "internalType": "string",
          "name": "promptURI",
          "type": "string"
        },
        {
          "internalType": "uint256",
          "name": "bidWindow",
          "type": "uint256"
        }
      ],
      "name": "createCommission",
      "outputs": [
        {
          "internalType": "uint256",
          "name": "commissionId",
          "type": "uint256"
        }
      ],
      "stateMutability": "payable",
      "type": "function"
    },
    {
      "inputs": [
        {
          "internalType": "uint256",
          "name": "commissionId",
          "type": "uint256"
        }
      ],
      "name": "finalizeLowestBid",
      "outputs": [],
      "stateMutability": "nonpayable",
      "type": "function"
    },
    {
      "inputs": [
        {
          "internalType": "uint256",
          "name": "commissionId",
          "type": "uint256"
        },
        {
          "internalType": "uint256",
          "name": "bidId",
          "type": "uint256"
        }
      ],
      "name": "getBid",
      "outputs": [
        {
          "components": [
            {
              "internalType": "address",
              "name": "creator",
              "type": "address"
            },
            {
              "internalType": "uint256",
              "name": "amount",
              "type": "uint256"
            },
            {
              "internalType": "string",
              "name": "endpointURI",
              "type": "string"
            },
            {
              "internalType": "bool",
              "name": "active",
              "type": "bool"
            }
          ],
          "internalType": "struct CommissionMarket.Bid",
          "name": "",
          "type": "tuple"
        }
      ],
      "stateMutability": "view",
      "type": "function"
    },
    {
      "inputs": [
        {
          "internalType": "uint256",
          "name": "commissionId",
          "type": "uint256"
        }
      ],
      "name": "getBidCount",
      "outputs": [
        {
          "internalType": "uint256",
          "name": "",
          "type": "uint256"
        }
      ],
      "stateMutability": "view",
      "type": "function"
    },
    {
      "inputs": [
        {
          "internalType": "uint256",
          "name": "commissionId",
          "type": "uint256"
        }
      ],
      "name": "getCommission",
      "outputs": [
        {
          "components": [
            {
              "internalType": "address",
              "name": "consumer",
              "type": "address"
            },
            {
              "internalType": "address",
              "name": "creator",
              "type": "address"
            },
            {
              "internalType": "uint256",
              "name": "maxBudget",
              "type": "uint256"
            },
            {
              "internalType": "uint256",
              "name": "acceptedAmount",
              "type": "uint256"
            },
            {
              "internalType": "uint256",
              "name": "bidDeadline",
              "type": "uint256"
            },
            {
              "internalType": "uint256",
              "name": "reviewDeadline",
              "type": "uint256"
            },
            {
              "internalType": "enum CommissionMarket.Status",
              "name": "status",
              "type": "uint8"
            },
            {
              "internalType": "string",
              "name": "promptURI",
              "type": "string"
            },
            {
              "internalType": "string",
              "name": "resultURI",
              "type": "string"
            }
          ],
          "internalType": "struct CommissionMarket.Commission",
          "name": "",
          "type": "tuple"
        }
      ],
      "stateMutability": "view",
      "type": "function"
    },
    {
      "inputs": [
        {
          "internalType": "uint256",
          "name": "commissionId",
          "type": "uint256"
        }
      ],
      "name": "getCommissionBids",
      "outputs": [
        {
          "components": [
            {
              "internalType": "address",
              "name": "creator",
              "type": "address"
            },
            {
              "internalType": "uint256",
              "name": "amount",
              "type": "uint256"
            },
            {
              "internalType": "string",
              "name": "endpointURI",
              "type": "string"
            },
            {
              "internalType": "bool",
              "name": "active",
              "type": "bool"
            }
          ],
          "internalType": "struct CommissionMarket.Bid[]",
          "name": "",
          "type": "tuple[]"
        }
      ],
      "stateMutability": "view",
      "type": "function"
    },
    {
      "inputs": [
        {
          "internalType": "uint256",
          "name": "startId",
          "type": "uint256"
        },
        {
          "internalType": "uint256",
          "name": "limit",
          "type": "uint256"
        }
      ],
      "name": "getCommissions",
      "outputs": [
        {
          "components": [
            {
              "internalType": "address",
              "name": "consumer",
              "type": "address"
            },
            {
              "internalType": "address",
              "name": "creator",
              "type": "address"
            },
            {
              "internalType": "uint256",
              "name": "maxBudget",
              "type": "uint256"
            },
            {
              "internalType": "uint256",
              "name": "acceptedAmount",
              "type": "uint256"
            },
            {
              "internalType": "uint256",
              "name": "bidDeadline",
              "type": "uint256"
            },
            {
              "internalType": "uint256",
              "name": "reviewDeadline",
              "type": "uint256"
            },
            {
              "internalType": "enum CommissionMarket.Status",
              "name": "status",
              "type": "uint8"
            },
            {
              "internalType": "string",
              "name": "promptURI",
              "type": "string"
            },
            {
              "internalType": "string",
              "name": "resultURI",
              "type": "string"
            }
          ],
          "internalType": "struct CommissionMarket.Commission[]",
          "name": "items",
          "type": "tuple[]"
        }
      ],
      "stateMutability": "view",
      "type": "function"
    },
    {
      "inputs": [],
      "name": "nextCommissionId",
      "outputs": [
        {
          "internalType": "uint256",
          "name": "",
          "type": "uint256"
        }
      ],
      "stateMutability": "view",
      "type": "function"
    },
    {
      "inputs": [
        {
          "internalType": "uint256",
          "name": "commissionId",
          "type": "uint256"
        },
        {
          "internalType": "uint256",
          "name": "amount",
          "type": "uint256"
        },
        {
          "internalType": "string",
          "name": "endpointURI",
          "type": "string"
        }
      ],
      "name": "placeBid",
      "outputs": [
        {
          "internalType": "uint256",
          "name": "bidId",
          "type": "uint256"
        }
      ],
      "stateMutability": "nonpayable",
      "type": "function"
    },
    {
      "inputs": [
        {
          "internalType": "uint256",
          "name": "commissionId",
          "type": "uint256"
        },
        {
          "internalType": "string",
          "name": "resultURI",
          "type": "string"
        }
      ],
      "name": "submitDelivery",
      "outputs": [],
      "stateMutability": "nonpayable",
      "type": "function"
    }
  ],
  "transactionHash": "0xdfe25d50e596bbc57e9decbfdffdc68911dba71b0e02eaa73e390bafbf55d829",
  "args": [],
  "numDeployments": 1,
  "solcInputHash": "ce88806664715f3a5b2ab8af48c161f9",
  "bytecode": "0x6080604052348015600f57600080fd5b506001600055611e2a806100246000396000f3fe6080604052600436106100f35760003560e01c8063744d34111161008a578063c94b674b11610059578063c94b674b146102bb578063d8ce3771146102db578063f0791006146102f0578063f75c14541461030357600080fd5b8063744d341114610221578063882d717e1461024e578063c06bbffb1461026e578063c8b94ae21461028e57600080fd5b806341b40985116100c657806341b409851461019e57806344739b52146101b4578063582c7ffd146101d4578063618d1d4a1461020157600080fd5b806302e9d5e4146100f85780633c4e27211461011a5780633c8bccd914610144578063402927ee14610171575b600080fd5b34801561010457600080fd5b50610118610113366004611718565b610323565b005b34801561012657600080fd5b506101316201518081565b6040519081526020015b60405180910390f35b34801561015057600080fd5b5061016461015f36600461173a565b6104bf565b60405161013b9190611875565b34801561017d57600080fd5b5061019161018c366004611718565b610687565b60405161013b919061188f565b3480156101aa57600080fd5b5061013160015481565b3480156101c057600080fd5b506101316101cf36600461193d565b61094d565b3480156101e057600080fd5b506101f46101ef366004611718565b610b2a565b60405161013b91906119d7565b34801561020d57600080fd5b5061011861021c3660046119ea565b610c7c565b34801561022d57600080fd5b5061013161023c36600461173a565b60009081526003602052604090205490565b34801561025a57600080fd5b5061011861026936600461173a565b610da5565b34801561027a57600080fd5b5061011861028936600461173a565b610eb4565b34801561029a57600080fd5b506102ae6102a936600461173a565b6110b7565b60405161013b9190611a36565b3480156102c757600080fd5b506101186102d636600461173a565b6111ed565b3480156102e757600080fd5b50610131600581565b6101316102fe366004611a8f565b61127b565b34801561030f57600080fd5b5061011861031e36600461173a565b6114c5565b600082815260026020526040902080546001600160a01b0316331461035b57604051638c7dc13d60e01b815260040160405180910390fd5b6000600682015460ff16600481111561037657610376611753565b1461039457604051631bb5f5b360e31b815260040160405180910390fd5b806004015442116103b857604051630c3ca1a360e11b815260040160405180910390fd5b60008381526003602052604090205482106103e65760405163c6388ef760e01b815260040160405180910390fd5b600083815260036020526040812080548490811061040657610406611adb565b60009182526020909120600490910201600381015490915060ff1661043e5760405163c6388ef760e01b815260040160405180910390fd5b8054600183810180546001600160a01b039384166001600160a01b03199091161790558083018054600386015560068501805460ff191690921790915582549054604051908152911690849086907ffc3d557e46010cdf2a5a80a495f308239f5be888eb5bb151be68d5c369728b249060200160405180910390a450505050565b6104c76116a9565b60008281526002602081815260409283902083516101208101855281546001600160a01b039081168252600183015416928101929092529182015492810192909252600381015460608301526004808201546080840152600582015460a0840152600682015460c084019160ff9091169081111561054757610547611753565b600481111561055857610558611753565b815260200160078201805461056c90611af1565b80601f016020809104026020016040519081016040528092919081815260200182805461059890611af1565b80156105e55780601f106105ba576101008083540402835291602001916105e5565b820191906000526020600020905b8154815290600101906020018083116105c857829003601f168201915b505050505081526020016008820180546105fe90611af1565b80601f016020809104026020016040519081016040528092919081815260200182805461062a90611af1565b80156106775780601f1061064c57610100808354040283529160200191610677565b820191906000526020600020905b81548152906001019060200180831161065a57829003601f168201915b5050505050815250509050919050565b600154606090808410158061069a575082155b156106d95760408051600080825260208201909252906106d0565b6106bd6116a9565b8152602001906001900390816106b55790505b50915050610947565b60006106e58486611b57565b9050818111156106f25750805b6106fc8582611b6a565b67ffffffffffffffff81111561071457610714611b2b565b60405190808252806020026020018201604052801561074d57816020015b61073a6116a9565b8152602001906001900390816107325790505b509250845b818110156109435760008181526002602081815260409283902083516101208101855281546001600160a01b039081168252600183015416928101929092529182015492810192909252600381015460608301526004808201546080840152600582015460a0840152600682015460c084019160ff909116908111156107da576107da611753565b60048111156107eb576107eb611753565b81526020016007820180546107ff90611af1565b80601f016020809104026020016040519081016040528092919081815260200182805461082b90611af1565b80156108785780601f1061084d57610100808354040283529160200191610878565b820191906000526020600020905b81548152906001019060200180831161085b57829003601f168201915b5050505050815260200160088201805461089190611af1565b80601f01602080910402602001604051908101604052809291908181526020018280546108bd90611af1565b801561090a5780601f106108df5761010080835404028352916020019161090a565b820191906000526020600020905b8154815290600101906020018083116108ed57829003601f168201915b5050505050815250508487836109209190611b6a565b8151811061093057610930611adb565b6020908102919091010152600101610752565b5050505b92915050565b600084815260026020526040812081600682015460ff16600481111561097557610975611753565b1461099357604051631bb5f5b360e31b815260040160405180910390fd5b80600401544211156109b857604051630c3ca1a360e11b815260040160405180910390fd5b8415806109c85750806002015485115b156109e65760405163326e033560e21b815260040160405180910390fd5b6000839003610a085760405163221418ad60e21b815260040160405180910390fd5b600086815260036020908152604091829020805483516080810185523381528084018a90528451601f890185900485028101850186528881529196509193919291830191889088908190840183828082843760009201829052509385525050600160209384018190528554808201875595835291839020845160049096020180546001600160a01b0319166001600160a01b0390961695909517855550908201519083015560408101519091906002820190610ac49082611bcb565b50606091909101516003909101805460ff19169115159190911790556040513390839088907e217f720ef25fcfee1b764bd8d8f7166244a9ed9235ac2ba59efae4ad413c7b90610b19908a908a908a90611cb3565b60405180910390a450949350505050565b610b60604051806080016040528060006001600160a01b0316815260200160008152602001606081526020016000151581525090565b6000838152600360205260409020805483908110610b8057610b80611adb565b90600052602060002090600402016040518060800160405290816000820160009054906101000a90046001600160a01b03166001600160a01b03166001600160a01b0316815260200160018201548152602001600282018054610be290611af1565b80601f0160208091040260200160405190810160405280929190818152602001828054610c0e90611af1565b8015610c5b5780601f10610c3057610100808354040283529160200191610c5b565b820191906000526020600020905b815481529060010190602001808311610c3e57829003601f168201915b50505091835250506003919091015460ff1615156020909101529392505050565b610c84611565565b60008381526002602052604090206001600682015460ff166004811115610cad57610cad611753565b14610ccb5760405163689f0d8360e01b815260040160405180910390fd5b60018101546001600160a01b03163314610cf8576040516393687c0b60e01b815260040160405180910390fd5b6000829003610d1a5760405163b26c227160e01b815260040160405180910390fd5b60088101610d29838583611ccd565b50610d376201518042611b57565b6005820181905560068201805460ff19166002179055604051339186917ff242025363f92e2e2f715fc947f7b8323cd46b4d17795f102fa163007235f95491610d839188918891611d8d565b60405180910390a3610d95848261158f565b50610da06001600055565b505050565b610dad611565565b600081815260026020526040902080546001600160a01b03163314610de557604051638c7dc13d60e01b815260040160405180910390fd5b6000600682015460ff166004811115610e0057610e00611753565b14610e1e57604051631bb5f5b360e31b815260040160405180910390fd5b80600401544211610e4257604051630c3ca1a360e11b815260040160405180910390fd5b600281015460068201805460ff191660041790558154610e6b906001600160a01b031682611635565b827fd5b65a5fbba008011e663cb10ab331ffb488d117ff5bf659723b93c78ee8d8fa82604051610e9d91815260200190565b60405180910390a25050610eb16001600055565b50565b600081815260026020526040812090600682015460ff166004811115610edc57610edc611753565b14610efa57604051631bb5f5b360e31b815260040160405180910390fd5b80600401544211610f1e57604051630c3ca1a360e11b815260040160405180910390fd5b60008281526003602052604081208054909103610f4e5760405163c3bc404360e01b815260040160405180910390fd5b6000600019815b8354811015610fec57838181548110610f7057610f70611adb565b600091825260209091206003600490920201015460ff168015610fb5575081848281548110610fa157610fa1611adb565b906000526020600020906004020160010154105b15610fe457809250838181548110610fcf57610fcf611adb565b90600052602060002090600402016001015491505b600101610f55565b50600019810361100f5760405163c3bc404360e01b815260040160405180910390fd5b600083838154811061102357611023611adb565b60009182526020918290206004909102018054600188810180546001600160a01b039384166001600160a01b0319909116179055808301805460038b015560068a01805460ff1916909217909155825490546040519081529294501691859189917ffc3d557e46010cdf2a5a80a495f308239f5be888eb5bb151be68d5c369728b24910160405180910390a4505050505050565b606060036000838152602001908152602001600020805480602002602001604051908101604052809291908181526020016000905b828210156111e2576000848152602090819020604080516080810182526004860290920180546001600160a01b031683526001810154938301939093526002830180549293929184019161113f90611af1565b80601f016020809104026020016040519081016040528092919081815260200182805461116b90611af1565b80156111b85780601f1061118d576101008083540402835291602001916111b8565b820191906000526020600020905b81548152906001019060200180831161119b57829003601f168201915b50505091835250506003919091015460ff16151560209182015290825260019290920191016110ec565b505050509050919050565b6111f5611565565b600081815260026020526040902080546001600160a01b0316331461122d57604051638c7dc13d60e01b815260040160405180910390fd5b6002600682015460ff16600481111561124857611248611753565b1461126657604051630a8bd16f60e21b815260040160405180910390fd5b611270828261158f565b50610eb16001600055565b600082810361129d5760405163b8a7f21960e01b815260040160405180910390fd5b60058210156112bf576040516319b8c7fd60e11b815260040160405180910390fd5b346000036112e05760405163769cabf160e01b815260040160405180910390fd5b600180549060006112f083611db1565b90915550905060006113028342611b57565b9050604051806101200160405280336001600160a01b0316815260200160006001600160a01b0316815260200134815260200160008152602001828152602001600081526020016000600481111561135c5761135c611753565b815260200186868080601f01602080910402602001604051908101604052809392919081815260200183838082843760009201829052509385525050604080516020818101835284825294850152868352600280855292819020855181546001600160a01b039182166001600160a01b03199182161783559587015160018084018054929093169190971617905590850151928101929092555060608301516003820155608083015160048083019190915560a0840151600583015560c084015160068301805493949193909260ff199091169190849081111561144257611442611753565b021790555060e0820151600782019061145b9082611bcb565b5061010082015160088201906114719082611bcb565b50905050336001600160a01b0316827fef421e0a737c2559481b10315de67e17043ed3aaa28b62c4f31062d5dfc7b01c348489896040516114b59493929190611dca565b60405180910390a3509392505050565b6114cd611565565b600081815260026020526040902060018101546001600160a01b03163314611508576040516393687c0b60e01b815260040160405180910390fd5b6002600682015460ff16600481111561152357611523611753565b1461154157604051630a8bd16f60e21b815260040160405180910390fd5b80600501544211611266576040516344582e9160e01b815260040160405180910390fd5b60026000540361158857604051633ee5aeb560e01b815260040160405180910390fd5b6002600055565b600381015460028201546000906115a7908390611b6a565b6001840154845460068601805460ff191660031790559192506001600160a01b0390811691166115d78285611635565b82156115e7576115e78184611635565b60408051858152602081018590526001600160a01b0384169188917fd497a9813a4a3cce0ad8bb1ed60a655f00b923794a9b03fb26e0fc6fa16bbe6f910160405180910390a3505050505050565b6000826001600160a01b03168260405160006040518083038185875af1925050503d8060008114611682576040519150601f19603f3d011682016040523d82523d6000602084013e611687565b606091505b5050905080610da0576040516312171d8360e31b815260040160405180910390fd5b60405180610120016040528060006001600160a01b0316815260200160006001600160a01b03168152602001600081526020016000815260200160008152602001600081526020016000600481111561170457611704611753565b815260200160608152602001606081525090565b6000806040838503121561172b57600080fd5b50508035926020909101359150565b60006020828403121561174c57600080fd5b5035919050565b634e487b7160e01b600052602160045260246000fd5b6005811061178757634e487b7160e01b600052602160045260246000fd5b9052565b6000815180845260005b818110156117b157602081850181015186830182015201611795565b506000602082860101526020601f19601f83011685010191505092915050565b80516001600160a01b03168252600060208201516117fa60208501826001600160a01b03169052565b5060408201516040840152606082015160608401526080820151608084015260a082015160a084015260c082015161183560c0850182611769565b5060e082015161012060e085015261185161012085018261178b565b905061010083015184820361010086015261186c828261178b565b95945050505050565b60208152600061188860208301846117d1565b9392505050565b6000602082016020835280845180835260408501915060408160051b86010192506020860160005b828110156118e857603f198786030184526118d38583516117d1565b945060209384019391909101906001016118b7565b50929695505050505050565b60008083601f84011261190657600080fd5b50813567ffffffffffffffff81111561191e57600080fd5b60208301915083602082850101111561193657600080fd5b9250929050565b6000806000806060858703121561195357600080fd5b8435935060208501359250604085013567ffffffffffffffff81111561197857600080fd5b611984878288016118f4565b95989497509550505050565b60018060a01b0381511682526020810151602083015260006040820151608060408501526119c1608085018261178b565b6060938401511515949093019390935250919050565b6020815260006118886020830184611990565b6000806000604084860312156119ff57600080fd5b83359250602084013567ffffffffffffffff811115611a1d57600080fd5b611a29868287016118f4565b9497909650939450505050565b6000602082016020835280845180835260408501915060408160051b86010192506020860160005b828110156118e857603f19878603018452611a7a858351611990565b94506020938401939190910190600101611a5e565b600080600060408486031215611aa457600080fd5b833567ffffffffffffffff811115611abb57600080fd5b611ac7868287016118f4565b909790965060209590950135949350505050565b634e487b7160e01b600052603260045260246000fd5b600181811c90821680611b0557607f821691505b602082108103611b2557634e487b7160e01b600052602260045260246000fd5b50919050565b634e487b7160e01b600052604160045260246000fd5b634e487b7160e01b600052601160045260246000fd5b8082018082111561094757610947611b41565b8181038181111561094757610947611b41565b601f821115610da057806000526020600020601f840160051c81016020851015611ba45750805b601f840160051c820191505b81811015611bc45760008155600101611bb0565b5050505050565b815167ffffffffffffffff811115611be557611be5611b2b565b611bf981611bf38454611af1565b84611b7d565b6020601f821160018114611c2d5760008315611c155750848201515b600019600385901b1c1916600184901b178455611bc4565b600084815260208120601f198516915b82811015611c5d5787850151825560209485019460019092019101611c3d565b5084821015611c7b5786840151600019600387901b60f8161c191681555b50505050600190811b01905550565b81835281816020850137506000828201602090810191909152601f909101601f19169091010190565b83815260406020820152600061186c604083018486611c8a565b67ffffffffffffffff831115611ce557611ce5611b2b565b611cf983611cf38354611af1565b83611b7d565b6000601f841160018114611d2d5760008515611d155750838201355b600019600387901b1c1916600186901b178355611bc4565b600083815260209020601f19861690835b82811015611d5e5786850135825560209485019460019092019101611d3e565b5086821015611d7b5760001960f88860031b161c19848701351681555b505060018560011b0183555050505050565b604081526000611da1604083018587611c8a565b9050826020830152949350505050565b600060018201611dc357611dc3611b41565b5060010190565b848152836020820152606060408201526000611dea606083018486611c8a565b969550505050505056fea2646970667358221220c078b03a98a1539bcbd310b093b06c169667142a6992ff77703bd4a03f16411064736f6c634300081e0033",
  "devdoc": {
    "errors": {
      "ReentrancyGuardReentrantCall()": [
        {
          "details": "Unauthorized reentrant call."
        }
      ]
    },
    "kind": "dev",
    "methods": {},
    "version": 1
  },
  "userdoc": {
    "kind": "user",
    "methods": {},
    "version": 1
  },
  "storageLayout": {
    "storage": [
      {
        "astId": 10,
        "contract": "contracts/CommissionMarket.sol:CommissionMarket",
        "label": "_status",
        "offset": 0,
        "slot": "0",
        "type": "t_uint256"
      },
      {
        "astId": 117,
        "contract": "contracts/CommissionMarket.sol:CommissionMarket",
        "label": "nextCommissionId",
        "offset": 0,
        "slot": "1",
        "type": "t_uint256"
      },
      {
        "astId": 122,
        "contract": "contracts/CommissionMarket.sol:CommissionMarket",
        "label": "commissions",
        "offset": 0,
        "slot": "2",
        "type": "t_mapping(t_uint256,t_struct(Commission)100_storage)"
      },
      {
        "astId": 128,
        "contract": "contracts/CommissionMarket.sol:CommissionMarket",
        "label": "commissionBids",
        "offset": 0,
        "slot": "3",
        "type": "t_mapping(t_uint256,t_array(t_struct(Bid)109_storage)dyn_storage)"
      }
    ],
    "types": {
      "t_address": {
        "encoding": "inplace",
        "label": "address",
        "numberOfBytes": "20"
      },
      "t_array(t_struct(Bid)109_storage)dyn_storage": {
        "base": "t_struct(Bid)109_storage",
        "encoding": "dynamic_array",
        "label": "struct CommissionMarket.Bid[]",
        "numberOfBytes": "32"
      },
      "t_bool": {
        "encoding": "inplace",
        "label": "bool",
        "numberOfBytes": "1"
      },
      "t_enum(Status)80": {
        "encoding": "inplace",
        "label": "enum CommissionMarket.Status",
        "numberOfBytes": "1"
      },
      "t_mapping(t_uint256,t_array(t_struct(Bid)109_storage)dyn_storage)": {
        "encoding": "mapping",
        "key": "t_uint256",
        "label": "mapping(uint256 => struct CommissionMarket.Bid[])",
        "numberOfBytes": "32",
        "value": "t_array(t_struct(Bid)109_storage)dyn_storage"
      },
      "t_mapping(t_uint256,t_struct(Commission)100_storage)": {
        "encoding": "mapping",
        "key": "t_uint256",
        "label": "mapping(uint256 => struct CommissionMarket.Commission)",
        "numberOfBytes": "32",
        "value": "t_struct(Commission)100_storage"
      },
      "t_string_storage": {
        "encoding": "bytes",
        "label": "string",
        "numberOfBytes": "32"
      },
      "t_struct(Bid)109_storage": {
        "encoding": "inplace",
        "label": "struct CommissionMarket.Bid",
        "members": [
          {
            "astId": 102,
            "contract": "contracts/CommissionMarket.sol:CommissionMarket",
            "label": "creator",
            "offset": 0,
            "slot": "0",
            "type": "t_address"
          },
          {
            "astId": 104,
            "contract": "contracts/CommissionMarket.sol:CommissionMarket",
            "label": "amount",
            "offset": 0,
            "slot": "1",
            "type": "t_uint256"
          },
          {
            "astId": 106,
            "contract": "contracts/CommissionMarket.sol:CommissionMarket",
            "label": "endpointURI",
            "offset": 0,
            "slot": "2",
            "type": "t_string_storage"
          },
          {
            "astId": 108,
            "contract": "contracts/CommissionMarket.sol:CommissionMarket",
            "label": "active",
            "offset": 0,
            "slot": "3",
            "type": "t_bool"
          }
        ],
        "numberOfBytes": "128"
      },
      "t_struct(Commission)100_storage": {
        "encoding": "inplace",
        "label": "struct CommissionMarket.Commission",
        "members": [
          {
            "astId": 82,
            "contract": "contracts/CommissionMarket.sol:CommissionMarket",
            "label": "consumer",
            "offset": 0,
            "slot": "0",
            "type": "t_address"
          },
          {
            "astId": 84,
            "contract": "contracts/CommissionMarket.sol:CommissionMarket",
            "label": "creator",
            "offset": 0,
            "slot": "1",
            "type": "t_address"
          },
          {
            "astId": 86,
            "contract": "contracts/CommissionMarket.sol:CommissionMarket",
            "label": "maxBudget",
            "offset": 0,
            "slot": "2",
            "type": "t_uint256"
          },
          {
            "astId": 88,
            "contract": "contracts/CommissionMarket.sol:CommissionMarket",
            "label": "acceptedAmount",
            "offset": 0,
            "slot": "3",
            "type": "t_uint256"
          },
          {
            "astId": 90,
            "contract": "contracts/CommissionMarket.sol:CommissionMarket",
            "label": "bidDeadline",
            "offset": 0,
            "slot": "4",
            "type": "t_uint256"
          },
          {
            "astId": 92,
            "contract": "contracts/CommissionMarket.sol:CommissionMarket",
            "label": "reviewDeadline",
            "offset": 0,
            "slot": "5",
            "type": "t_uint256"
          },
          {
            "astId": 95,
            "contract": "contracts/CommissionMarket.sol:CommissionMarket",
            "label": "status",
            "offset": 0,
            "slot": "6",
            "type": "t_enum(Status)80"
          },
          {
            "astId": 97,
            "contract": "contracts/CommissionMarket.sol:CommissionMarket",
            "label": "promptURI",
            "offset": 0,
            "slot": "7",
            "type": "t_string_storage"
          },
          {
            "astId": 99,
            "contract": "contracts/CommissionMarket.sol:CommissionMarket",
            "label": "resultURI",
            "offset": 0,
            "slot": "8",
            "type": "t_string_storage"
          }
        ],
        "numberOfBytes": "288"
      },
      "t_uint256": {
        "encoding": "inplace",
        "label": "uint256",
        "numberOfBytes": "32"
      }
    }
  }
}